{"abi":[{"type":"constructor","inputs":[{"name":"_owner","type":"address","internalType":"address"},{"name":"_pyusd","type":"address","internalType":"address"}],"stateMutability":"nonpayable"},{"type":"receive","stateMutability":"payable"},{"type":"function","name":"checkIfDisputeIsResolved","inputs":[{"name":"_disputeId","type":"uint64","internalType":"uint64"}],"outputs":[{"name":"","type":"bool","internalType":"bool"}],"stateMutability":"view"},{"type":"function","name":"createDispute","inputs":[{"name":"_requester","type":"address","internalType":"address"},{"name":"_proofs","type":"string","internalType":"string"}],"outputs":[],"stateMutability":"nonpayable"},{"type":"function","name":"disputeCount","inputs":[],"outputs":[{"name":"","type":"uint64","internalType":"uint64"}],"stateMutability":"view"},{"type":"function","name":"disputePrice","inputs":[],"outputs":[{"name":"","type":"uint256","internalType":"uint256"}],"stateMutability":"view"},{"type":"function","name":"disputes","inputs":[{"name":"","type":"uint64","internalType":"uint64"}],"outputs":[{"name":"disputeId","type":"uint32","internalType":"uint32"},{"name":"contractAddress","type":"address","internalType":"address"},{"name":"requester","type":"address","internalType":"address"},{"name":"beneficiary","type":"address","internalType":"address"},{"name":"requesterProofs","type":"string","internalType":"string"},{"name":"beneficiaryProofs","type":"string","internalType":"string"},{"name":"votesFor","type":"uint8","internalType":"uint8"},{"name":"votesAgainst","type":"uint8","internalType":"uint8"},{"name":"waitingForJudges","type":"bool","internalType":"bool"},{"name":"isOpen","type":"bool","internalType":"bool"},{"name":"resolved","type":"bool","internalType":"bool"}],"stateMutability":"view"},{"type":"function","name":"executeDisputeResult","inputs":[{"name":"_disputeId","type":"uint64","internalType":"uint64"}],"outputs":[{"name":"","type":"bool","internalType":"bool"}],"stateMutability":"view"},{"type":"function","name":"factory","inputs":[],"outputs":[{"name":"","type":"address","internalType":"address"}],"stateMutability":"view"},{"type":"function","name":"getDisputeResult","inputs":[],"outputs":[{"name":"","type":"bool","internalType":"bool"}],"stateMutability":"pure"},{"type":"function","name":"judgeWithdraw","inputs":[],"outputs":[],"stateMutability":"nonpayable"},{"type":"function","name":"judges","inputs":[{"name":"","type":"address","internalType":"address"}],"outputs":[{"name":"judgeAddress","type":"address","internalType":"address"},{"name":"balance","type":"uint256","internalType":"uint256"},{"name":"reputation","type":"int8","internalType":"int8"}],"stateMutability":"view"},{"type":"function","name":"numberOfVotes","inputs":[],"outputs":[{"name":"","type":"uint8","internalType":"uint8"}],"stateMutability":"view"},{"type":"function","name":"owner","inputs":[],"outputs":[{"name":"","type":"address","internalType":"address"}],"stateMutability":"view"},{"type":"function","name":"registerAsJudge","inputs":[],"outputs":[],"stateMutability":"nonpayable"},{"type":"function","name":"registerToVote","inputs":[{"name":"_disputeId","type":"uint64","internalType":"uint64"}],"outputs":[],"stateMutability":"nonpayable"},{"type":"function","name":"setFactoryAddress","inputs":[{"name":"_factory","type":"address","internalType":"address"}],"outputs":[],"stateMutability":"nonpayable"},{"type":"function","name":"setJudgeBalance","inputs":[{"name":"_judge","type":"address","internalType":"address"},{"name":"_amount","type":"uint256","internalType":"uint256"}],"outputs":[],"stateMutability":"nonpayable"},{"type":"function","name":"updateDisputeForBeneficiary","inputs":[{"name":"_disputeId","type":"uint64","internalType":"uint64"},{"name":"_beneficiary","type":"address","internalType":"address"},{"name":"_proof","type":"string","internalType":"string"}],"outputs":[],"stateMutability":"nonpayable"},{"type":"function","name":"updateDisputeForPayer","inputs":[{"name":"_disputeId","type":"uint64","internalType":"uint64"},{"name":"_requester","type":"address","internalType":"address"},{"name":"_proof","type":"string","internalType":"string"}],"outputs":[],"stateMutability":"nonpayable"},{"type":"function","name":"updateNumberOfVotes","inputs":[{"name":"_newNumber","type":"uint8","internalType":"uint8"}],"outputs":[],"stateMutability":"nonpayable"},{"type":"function","name":"vote","inputs":[{"name":"_disputeId","type":"uint64","internalType":"uint64"},{"name":"_support","type":"bool","internalType":"bool"}],"outputs":[],"stateMutability":"nonpayable"},{"type":"function","name":"withdraw","inputs":[],"outputs":[],"stateMutability":"nonpayable"},{"type":"event","name":"DisputeCreated","inputs":[{"name":"disputeId","type":"uint256","indexed":true,"internalType":"uint256"},{"name":"requester","type":"address","indexed":true,"internalType":"address"},{"name":"contractAddress","type":"address","indexed":true,"internalType":"address"}],"anonymous":false},{"type":"event","name":"DisputeResolved","inputs":[{"name":"disputeId","type":"uint256","indexed":true,"internalType":"uint256"},{"name":"winner","type":"address","indexed":false,"internalType":"address"}],"anonymous":false},{"type":"event","name":"JudgeRegistered","inputs":[{"name":"judge","type":"address","indexed":true,"internalType":"address"}],"anonymous":false},{"type":"error","name":"SafeERC20FailedOperation","inputs":[{"name":"token","type":"address","internalType":"address"}]}],"bytecode":{"object":"0x60803460a957601f6121e838819003918201601f19168301916001600160401b0383118484101760ad57808492604094855283398101031260a957604b602060458360c1565b920160c1565b600480546001600160481b031916680500000000000000011790556302faf0806005555f80546001600160a01b03199081166001600160a01b0394851617909155600280549091169190921617905560405161211390816100d58239f35b5f80fd5b634e487b7160e01b5f52604160045260245ffd5b51906001600160a01b038216820360a95756fe6080604052600436101561001a575b3615610018575f80fd5b005b5f3560e01c80630559467f146113f85780630e7d490d146113d55780631a49dfce146112c9578063377887e8146111555780633b23121d1461113a5780633ccfd60b146110485780636cf57d9414610fb55780636da19c3514610f985780637fdc7fcb14610f6b57806383c17c5514610e9a5780638422a2f214610e415780638da5cb5b14610e1a578063a28889e114610df4578063b99224b114610db2578063bfad8ea214610d7a578063c45a015514610d52578063c7f2156014610848578063d06e72c4146106a1578063ead3489a146103b6578063eb1d33f8146102065763fc1a61d00361000e5734610202576020366003190112610202576001600160401b03610126611493565b165f9081526007602052604090208054600182015460028301546001600160a01b039182169391169060ff906101c2906101b46101656003830161159b565b60086101736004850161159b565b93015495604051988863ffffffff8b9a168a5260018060a01b039060201c1660208a015260408901526060880152610160608088015261016087019061163b565b9085820360a087015261163b565b9181811660c0850152818160081c1660e0850152818160101c161515610100850152818160181c16151561012085015260201c1615156101408301520390f35b5f80fd5b34610202576001600160401b0361021c366114ec565b929093165f908152600760205260409020600281015490916001600160a01b0391821691160361037b57600490610254831515611699565b61026860ff600883015460201c16156116dd565b01906001600160401b038111610367576102828254611542565b601f8111610322575b505f601f82116001146102c4578192935f926102b9575b50505f19600383901b1c191660019190911b179055005b0135905083806102a2565b601f19821693835f5260205f20915f5b86811061030a57508360019596106102f1575b505050811b019055005b01355f19600384901b60f8161c191690558380806102e7565b909260206001819286860135815501940191016102d4565b825f5260205f20601f830160051c8101916020841061035d575b601f0160051c01905b818110610352575061028b565b5f8155600101610345565b909150819061033c565b634e487b7160e01b5f52604160045260245ffd5b60405162461bcd60e51b81526020600482015260136024820152724e6f74207468652062656e656669636961727960681b6044820152606490fd5b34610202576040366003190112610202576103cf6114a9565b6024356001600160401b038111610202576103ee9036906004016114bf565b60015460405163b6bb7f9760e01b815233600482015292939290602090829060249082906001600160a01b03165afa908115610696575f9161065b575b5015610627576004546001600160401b039081165f9081526007602052604090206001810180546001600160a01b0319166001600160a01b03861617905591600383019181116103675761047f8254611542565b601f81116105e2575b505f601f821160011461057b578190600895965f92610570575b50508160011b915f199060031b1c19161790555b8054640100000000600160c01b03191633602081901b640100000000600160c01b03169190911782559101805462ff0000191662010000179055600454916001600160401b03831691906001600160a01b0316827fa98740350a04e10bd52f7846736922efc8c45cf66834c194a975d83416861f225f80a46001600160401b03811461055c5760016001600160401b03910116906001600160401b031916176004555f80f35b634e487b7160e01b5f52601160045260245ffd5b0135905086806104a2565b601f19821690835f5260205f20915f5b8181106105ca57509683929160019460089899106105b1575b505050811b0190556104b6565b01355f19600384901b60f8161c191690558680806105a4565b9192602060018192868c01358155019401920161058b565b825f5260205f20601f830160051c8101916020841061061d575b601f0160051c01905b8181106106125750610488565b5f8155600101610605565b90915081906105fc565b60405162461bcd60e51b815260206004820152600c60248201526b155b985d5d1a1bdc9a5e995960a21b6044820152606490fd5b90506020813d60201161068e575b816106766020938361157a565b8101031261020257518015158103610202578461042b565b3d9150610669565b6040513d5f823e3d90fd5b34610202576020366003190112610202576001600160401b036106c2611493565b165f52600760205260405f20335f5260066020526106ed60018060a01b0360405f205416151561165f565b335f526006602052600219600260405f2001545f0b1261080b57600881019060ff825460101c16156107c65760050180545f5b8181106107575750506107333382611f59565b5460ff60045460401c161461074457005b805463ffff000019166301000000179055005b6107618184611f30565b905460039190911b1c6001600160a01b0316331461078157600101610720565b60405162461bcd60e51b815260206004820152601860248201527f4a7564676520616c7265616479207265676973746572656400000000000000006044820152606490fd5b60405162461bcd60e51b815260206004820152601760248201527f4a756467657320616c72656164792061737369676e65640000000000000000006044820152606490fd5b60405162461bcd60e51b81526020600482015260156024820152742737ba1032b737bab3b4103932b83aba30ba34b7b760591b6044820152606490fd5b3461020257604036600319011261020257610861611493565b6024359081151590818303610202576001600160401b03165f8181526007602052604090209161089933610894856117a9565b612098565b15610d0d576008830191825460ff8160201c16610cc85760181c60ff1615610c90575f9460068501958654905b818110610c2b5750506108d93387611f59565b60078501928354600160401b811015610367578060016108fc9201865585611f9a565b60ff80839493549260031b9316831b921b19161790555f14610c0557825460ff610927818316611fb8565b169060ff19161783555b845460ff60045460401c161461094357005b60ff80845464010000000064ffff00000019821617809655169360081c169360055460ff60045460401c16908115610bf157049385811115610abb57505f5b8654811015610a64578060ff61099a60019387611f9a565b90549060031b1c165f14610a20576109b28189611f30565b838060a01b0391549060031b1c165f526006602052600260405f20016109da81545f0b611fda565b60ff198254169060ff161790556109f18189611f30565b838060a01b0391549060031b1c165f5260066020528160405f2001610a17878254611fea565b90555b01610982565b610a2a8189611f30565b838060a01b0391549060031b1c165f526006602052600260405f2001610a5281545f0b611fc9565b60ff198254169060ff16179055610a1a565b5091509350610aa1610a997ff77ceb5e091d2da041bc760667f9d5fe7a756949eaf29250ad0e60ca6f4c27d994602094611ff7565b600354611fea565b600355600101546040516001600160a01b039091168152a2005b94505f5b8654811015610ba2578060ff610ad760019387611f9a565b90549060031b1c16155f14610b5e57610af08189611f30565b838060a01b0391549060031b1c165f526006602052600260405f2001610b1881545f0b611fda565b60ff198254169060ff16179055610b2f8189611f30565b838060a01b0391549060031b1c165f5260066020528160405f2001610b55878254611fea565b90555b01610abf565b610b688189611f30565b838060a01b0391549060031b1c165f526006602052600260405f2001610b9081545f0b611fc9565b60ff198254169060ff16179055610b58565b5091509350610bd7610a997ff77ceb5e091d2da041bc760667f9d5fe7a756949eaf29250ad0e60ca6f4c27d994602094611ff7565b600355600201546040516001600160a01b039091168152a2005b634e487b7160e01b5f52601260045260245ffd5b825461ff00610c1960ff8360081c16611fb8565b60081b169061ff001916178355610931565b610c358189611f30565b905460039190911b1c6001600160a01b03163314610c55576001016108c6565b60405162461bcd60e51b8152602060048201526013602482015272129d5919d948185b1c9958591e481d9bdd1959606a1b6044820152606490fd5b60405162461bcd60e51b815260206004820152601060248201526f2234b9b83aba32903737ba1037b832b760811b6044820152606490fd5b60405162461bcd60e51b815260206004820152601860248201527f4469737075746520616c7265616479207265736f6c76656400000000000000006044820152606490fd5b60405162461bcd60e51b815260206004820152601960248201527f4a75646765206e6f7420616c6c6f77656420746f20766f7465000000000000006044820152606490fd5b34610202575f366003190112610202576001546040516001600160a01b039091168152602090f35b34610202576040366003190112610202576001600160a01b03610d9b6114a9565b165f526006602052602435600160405f2001555f80f35b34610202576020366003190112610202576001600160401b03610dd3611493565b165f526007602052602060ff600860405f200154821c166040519015158152f35b34610202575f3660031901126102025760206001600160401b0360045416604051908152f35b34610202575f366003190112610202575f546040516001600160a01b039091168152602090f35b34610202576020366003190112610202576001600160a01b03610e626114a9565b165f526006602052606060405f2060018060a01b0381541690600260018201549101545f0b9060405192835260208301526040820152f35b3461020257602036600319011261020257610eb36114a9565b610ec760018060a01b035f5416331461171c565b600154906001600160a01b038216610f30576001600160a01b0316908115610ef9576001600160a01b03191617600155005b60405162461bcd60e51b815260206004820152600f60248201526e496e76616c6964206164647265737360881b6044820152606490fd5b60405162461bcd60e51b8152602060048201526013602482015272119858dd1bdc9e48185b1c9958591e481cd95d606a1b6044820152606490fd5b34610202576020366003190112610202576020610f8e610f89611493565b611ea3565b6040519015158152f35b34610202575f366003190112610202576020600554604051908152f35b346102025760203660031901126102025760043560ff811680820361020257610fe860018060a01b035f5416331461171c565b1561100a5760ff60401b6004549160401b169060ff60401b1916176004555f80f35b60405162461bcd60e51b815260206004820152601660248201527504d7573742062652067726561746572207468616e20360541b6044820152606490fd5b34610202575f366003190112610202575f546001600160a01b031661106e33821461171c565b6002546040516370a0823160e01b81523060048201526001600160a01b0390911691602082602481865afa918215610696575f92611106575b506003548083039280841161055c57146110ca576110c49261200a565b5f600355005b60405162461bcd60e51b81526020600482015260146024820152734e6f20505955534420746f20776974686472617760601b6044820152606490fd5b9091506020813d602011611132575b816111226020938361157a565b81010312610202575190836110a7565b3d9150611115565b34610202575f36600319011261020257602060405160018152f35b34610202576001600160401b0361116b366114ec565b929093165f908152600760205260409020600181015490916001600160a01b03918216911603611290576003906111a3831515611699565b6111b760ff600883015460201c16156116dd565b01906001600160401b038111610367576111d18254611542565b601f811161124b575b505f601f8211600114611207578192935f926102b95750505f19600383901b1c191660019190911b179055005b601f19821693835f5260205f20915f5b86811061123357508360019596106102f157505050811b019055005b90926020600181928686013581550194019101611217565b825f5260205f20601f830160051c81019160208410611286575b601f0160051c01905b81811061127b57506111da565b5f815560010161126e565b9091508190611265565b60405162461bcd60e51b81526020600482015260116024820152702737ba103a3432903932b8bab2b9ba32b960791b6044820152606490fd5b34610202575f36600319011261020257335f908152600660205260409020546001600160a01b031661139b57604051606081018181106001600160401b03821117610367576040523381526002602082015f815260408301905f8252335f52600660205260405f209360018060a01b039060018060a01b03905116166bffffffffffffffffffffffff60a01b855416178455516001840155515f0b91019060ff198254169060ff16179055337f582bba51a749ccba1f3ba17ddd7b05ab70236e0ba51aacaeb1788ba34b5b4a735f80a2005b60405162461bcd60e51b8152602060048201526012602482015271105b1c9958591e481c9959da5cdd195c995960721b6044820152606490fd5b34610202575f36600319011261020257602060ff60045460401c16604051908152f35b34610202575f36600319011261020257335f90815260066020526040902080546001600160a01b03169060019061143083151561165f565b01908154908115611455575f90925560025461001892906001600160a01b031661200a565b60405162461bcd60e51b81526020600482015260166024820152754e6f2062616c616e636520746f20776974686472617760501b6044820152606490fd5b600435906001600160401b038216820361020257565b600435906001600160a01b038216820361020257565b9181601f84011215610202578235916001600160401b038311610202576020838186019501011161020257565b6060600319820112610202576004356001600160401b038116810361020257916024356001600160a01b03811681036102025791604435906001600160401b0382116102025761153e916004016114bf565b9091565b90600182811c92168015611570575b602083101461155c57565b634e487b7160e01b5f52602260045260245ffd5b91607f1691611551565b90601f801991011681019081106001600160401b0382111761036757604052565b9060405191825f8254926115ae84611542565b808452936001811690811561161957506001146115d5575b506115d39250038361157a565b565b90505f9291925260205f20905f915b8183106115fd5750509060206115d3928201015f6115c6565b60209193508060019154838589010152019101909184926115e4565b9050602092506115d394915060ff191682840152151560051b8201015f6115c6565b805180835260209291819084018484015e5f828201840152601f01601f1916010190565b1561166657565b60405162461bcd60e51b815260206004820152600b60248201526a4e6f742061206a7564676560a81b6044820152606490fd5b156116a057565b60405162461bcd60e51b815260206004820152601560248201527450726f6f662063616e6e6f7420626520656d70747960581b6044820152606490fd5b156116e457565b60405162461bcd60e51b815260206004820152601060248201526f111a5cdc1d5d19481c995cdbdb1d995960821b6044820152606490fd5b1561172357565b60405162461bcd60e51b815260206004820152600d60248201526c2737ba103a34329027bbb732b960991b6044820152606490fd5b90604051918281549182825260208201905f5260205f20925f5b8181106117875750506115d39250038361157a565b84546001600160a01b0316835260019485019487945060209093019201611772565b906040516101c081018181106001600160401b03821117610367576040908152835463ffffffff811683526001600160a01b03602091821c811691840191909152600185015481169183019190915260028401541660608201529182906118126003820161159b565b60808301526118236004820161159b565b60a083015261183460058201611758565b60c083015261184560068201611758565b60e0830152600781016040519081602082549182815201915f5260205f20905f915b81601f840110611cc157846008946101a0979460ff979461198a945491818110611cac575b818110611c95575b818110611c7d575b818110611c65575b818110611c4e575b818110611c36575b818110611c1e575b818110611c06575b818110611bee575b818110611bd6575b818110611bbe575b818110611ba6575b818110611b8e575b818110611b76575b818110611b5e575b818110611b46575b818110611b2e575b818110611b16575b818110611afe575b818110611ae6575b818110611ace575b818110611ab6575b818110611a9e575b818110611a86575b818110611a6e575b818110611a56575b818110611a3e575b818110611a26575b818110611a0e575b8181106119f6575b8181106119de575b106119ce575b50038261157a565b6101008601520154818116610120850152818160081c16610140850152818160101c161515610160850152818160181c16151561018085015260201c161515910152565b60f81c151581526020015f611982565b9260206001918b8560f01c161515815201930161197c565b9260206001918b8560e81c1615158152019301611974565b9260206001918b8560e01c161515815201930161196c565b9260206001918b8560d81c1615158152019301611964565b9260206001918b8560d01c161515815201930161195c565b9260206001918b8560c81c1615158152019301611954565b9260206001918b8560c01c161515815201930161194c565b9260206001918b8560b81c1615158152019301611944565b9260206001918b8560b01c161515815201930161193c565b9260206001918b8560a81c1615158152019301611934565b9260206001918b8560a01c161515815201930161192c565b9260206001918b8560981c1615158152019301611924565b9260206001918b8560901c161515815201930161191c565b9260206001918b8560881c1615158152019301611914565b9260206001918b8560801c161515815201930161190c565b9260206001918b8560781c1615158152019301611904565b9260206001918b8560701c16151581520193016118fc565b9260206001918b8560681c16151581520193016118f4565b9260206001918b8560601c16151581520193016118ec565b9260206001918b8560581c16151581520193016118e4565b9260206001918b8560501c16151581520193016118dc565b9260206001918b8560481c16151581520193016118d4565b9260206001918b8560401c16151581520193016118cc565b9260206001918b8560381c16151581520193016118c4565b9260206001918b8560301c16151581520193016118bc565b9260206001918b8560281c16151581520193016118b4565b9260206001918b85831c16151581520193016118ac565b9260206001918b8560181c16151581520193016118a4565b9260206001918b8560101c161515815201930161189c565b9260206001918b858c1c1615158152019301611894565b9260206001918b85161515815201930161188c565b926001610400602092865460ff81161515825260ff8160081c1615158583015260ff8160101c161515604083015260ff8160181c161515606083015260ff81861c161515608083015260ff8160281c16151560a083015260ff8160301c16151560c083015260ff8160381c16151560e083015260ff8160401c16151561010083015260ff8160481c16151561012083015260ff8160501c16151561014083015260ff8160581c16151561016083015260ff8160601c16151561018083015260ff8160681c1615156101a083015260ff8160701c1615156101c083015260ff8160781c1615156101e083015260ff8160801c16151561020083015260ff8160881c16151561022083015260ff8160901c16151561024083015260ff8160981c16151561026083015260ff8160a01c16151561028083015260ff8160a81c1615156102a083015260ff8160b01c1615156102c083015260ff8160b81c1615156102e083015260ff8160c01c16151561030083015260ff8160c81c16151561032083015260ff8160d01c16151561034083015260ff8160d81c16151561036083015260ff8160e01c16151561038083015260ff8160e81c1615156103a083015260ff8160f01c1615156103c083015260f81c15156103e0820152019401920191611867565b6001600160401b03165f526007602052611ebf60405f206117a9565b6101a081015115611eeb5760ff610140816101208401511692015116105f14611ee757600190565b5f90565b60405162461bcd60e51b815260206004820152601860248201527f44697370757465206e6f74207265736f6c7665642079657400000000000000006044820152606490fd5b8054821015611f45575f5260205f2001905f90565b634e487b7160e01b5f52603260045260245ffd5b8054600160401b81101561036757611f7691600182018155611f30565b81546001600160a01b0393841660039290921b91821b9390911b1916919091179055565b9190918054831015611f45575f52601f60205f208360051c01921690565b60ff1660ff811461055c5760010190565b5f0b607f19811461055c575f190190565b5f0b607f811461055c5760010190565b9190820180921161055c57565b8181029291811591840414171561055c57565b60405163a9059cbb60e01b60208281019182526001600160a01b03909416602483015260448083019590955293815290925f9161204860648261157a565b519082855af115610696575f513d61208f57506001600160a01b0381163b155b61206f5750565b635274afe760e01b5f9081526001600160a01b0391909116600452602490fd5b60011415612068565b905f5b60c083015180518210156120d557600582901b01602001516001600160a01b038381169116146120cd5760010161209b565b505050600190565b505050505f9056fea264697066735822122054de36279251c287027b0d70e622c51fd6389f891517104eedd26013ed41b73f64736f6c634300081e0033","linkReferences":{}},"methodIdentifiers":{"checkIfDisputeIsResolved(uint64)":"b99224b1","createDispute(address,string)":"ead3489a","disputeCount()":"a28889e1","disputePrice()":"6da19c35","disputes(uint64)":"fc1a61d0","executeDisputeResult(uint64)":"7fdc7fcb","factory()":"c45a0155","getDisputeResult()":"3b23121d","judgeWithdraw()":"0559467f","judges(address)":"8422a2f2","numberOfVotes()":"0e7d490d","owner()":"8da5cb5b","registerAsJudge()":"1a49dfce","registerToVote(uint64)":"d06e72c4","setFactoryAddress(address)":"83c17c55","setJudgeBalance(address,uint256)":"bfad8ea2","updateDisputeForBeneficiary(uint64,address,string)":"eb1d33f8","updateDisputeForPayer(uint64,address,string)":"377887e8","updateNumberOfVotes(uint8)":"6cf57d94","vote(uint64,bool)":"c7f21560","withdraw()":"3ccfd60b"},"id":57}