{"abi":[{"type":"function","name":"createDispute","inputs":[{"name":"_requester","type":"address","internalType":"address"}],"outputs":[],"stateMutability":"nonpayable"},{"type":"event","name":"DisputeCreated","inputs":[{"name":"disputeId","type":"uint256","indexed":true,"internalType":"uint256"},{"name":"requester","type":"address","indexed":true,"internalType":"address"},{"name":"contractAddress","type":"address","indexed":true,"internalType":"address"}],"anonymous":false}],"bytecode":{"object":"0x6080806040523460135760a3908160188239f35b5f80fdfe6004361015600b575f80fd5b5f3560e01c63af75ad2d14601d575f80fd5b3460695760203660031901126069576004356001600160a01b0381169081900360695733905f7fa98740350a04e10bd52f7846736922efc8c45cf66834c194a975d83416861f228180a4005b5f80fdfea2646970667358221220de9daeb4a952b3446de11f5e28a957f17b3790ac84cdae61894ca9d49cb4aaee64736f6c634300081e0033","linkReferences":{}},"methodIdentifiers":{"createDispute(address)":"af75ad2d"},"id":12}