{"abi":[{"type":"constructor","inputs":[{"name":"_owner","type":"address","internalType":"address"},{"name":"_pyusd","type":"address","internalType":"address"}],"stateMutability":"nonpayable"},{"type":"receive","stateMutability":"payable"},{"type":"function","name":"checkIfDisputeIsResolved","inputs":[{"name":"_disputeId","type":"uint64","internalType":"uint64"}],"outputs":[{"name":"","type":"bool","internalType":"bool"}],"stateMutability":"view"},{"type":"function","name":"createDispute","inputs":[{"name":"_requester","type":"address","internalType":"address"},{"name":"_proofs","type":"string","internalType":"string"}],"outputs":[],"stateMutability":"nonpayable"},{"type":"function","name":"disputeCount","inputs":[],"outputs":[{"name":"","type":"uint64","internalType":"uint64"}],"stateMutability":"view"},{"type":"function","name":"disputePrice","inputs":[],"outputs":[{"name":"","type":"uint256","internalType":"uint256"}],"stateMutability":"view"},{"type":"function","name":"disputes","inputs":[{"name":"","type":"uint64","internalType":"uint64"}],"outputs":[{"name":"disputeId","type":"uint32","internalType":"uint32"},{"name":"contractAddress","type":"address","internalType":"address"},{"name":"requester","type":"address","internalType":"address"},{"name":"beneficiary","type":"address","internalType":"address"},{"name":"requesterProofs","type":"string","internalType":"string"},{"name":"beneficiaryProofs","type":"string","internalType":"string"},{"name":"votesFor","type":"uint8","internalType":"uint8"},{"name":"votesAgainst","type":"uint8","internalType":"uint8"},{"name":"waitingForJudges","type":"bool","internalType":"bool"},{"name":"isOpen","type":"bool","internalType":"bool"},{"name":"resolved","type":"bool","internalType":"bool"}],"stateMutability":"view"},{"type":"function","name":"executeDisputeResult","inputs":[{"name":"_disputeId","type":"uint64","internalType":"uint64"}],"outputs":[{"name":"","type":"bool","internalType":"bool"}],"stateMutability":"view"},{"type":"function","name":"factory","inputs":[],"outputs":[{"name":"","type":"address","internalType":"address"}],"stateMutability":"view"},{"type":"function","name":"judgeWithdraw","inputs":[],"outputs":[],"stateMutability":"nonpayable"},{"type":"function","name":"judges","inputs":[{"name":"","type":"address","internalType":"address"}],"outputs":[{"name":"judgeAddress","type":"address","internalType":"address"},{"name":"balance","type":"uint256","internalType":"uint256"},{"name":"reputation","type":"int8","internalType":"int8"}],"stateMutability":"view"},{"type":"function","name":"numberOfVotes","inputs":[],"outputs":[{"name":"","type":"uint8","internalType":"uint8"}],"stateMutability":"view"},{"type":"function","name":"owner","inputs":[],"outputs":[{"name":"","type":"address","internalType":"address"}],"stateMutability":"view"},{"type":"function","name":"registerAsJudge","inputs":[],"outputs":[],"stateMutability":"nonpayable"},{"type":"function","name":"registerToVote","inputs":[{"name":"_disputeId","type":"uint64","internalType":"uint64"}],"outputs":[],"stateMutability":"nonpayable"},{"type":"function","name":"setFactoryAddress","inputs":[{"name":"_factory","type":"address","internalType":"address"}],"outputs":[],"stateMutability":"nonpayable"},{"type":"function","name":"updateDisputeForBeneficiary","inputs":[{"name":"_disputeId","type":"uint64","internalType":"uint64"},{"name":"_beneficiary","type":"address","internalType":"address"},{"name":"_proof","type":"string","internalType":"string"}],"outputs":[],"stateMutability":"nonpayable"},{"type":"function","name":"updateDisputeForPayer","inputs":[{"name":"_disputeId","type":"uint64","internalType":"uint64"},{"name":"_requester","type":"address","internalType":"address"},{"name":"_proof","type":"string","internalType":"string"}],"outputs":[],"stateMutability":"nonpayable"},{"type":"function","name":"updateNumberOfVotes","inputs":[{"name":"_newNumber","type":"uint8","internalType":"uint8"}],"outputs":[],"stateMutability":"nonpayable"},{"type":"function","name":"vote","inputs":[{"name":"_disputeId","type":"uint64","internalType":"uint64"},{"name":"_support","type":"bool","internalType":"bool"}],"outputs":[],"stateMutability":"nonpayable"},{"type":"function","name":"withdraw","inputs":[],"outputs":[],"stateMutability":"nonpayable"},{"type":"event","name":"DisputeCreated","inputs":[{"name":"disputeId","type":"uint256","indexed":true,"internalType":"uint256"},{"name":"requester","type":"address","indexed":true,"internalType":"address"},{"name":"contractAddress","type":"address","indexed":true,"internalType":"address"}],"anonymous":false},{"type":"event","name":"DisputeResolved","inputs":[{"name":"disputeId","type":"uint256","indexed":true,"internalType":"uint256"},{"name":"winner","type":"address","indexed":false,"internalType":"address"}],"anonymous":false},{"type":"event","name":"JudgeRegistered","inputs":[{"name":"judge","type":"address","indexed":true,"internalType":"address"}],"anonymous":false},{"type":"error","name":"SafeERC20FailedOperation","inputs":[{"name":"token","type":"address","internalType":"address"}]}],"bytecode":{"object":"0x60803460a957601f61217f38819003918201601f19168301916001600160401b0383118484101760ad57808492604094855283398101031260a957604b602060458360c1565b920160c1565b600480546001600160481b031916680500000000000000011790556302faf0806005555f80546001600160a01b03199081166001600160a01b039485161790915560028054909116919092161790556040516120aa90816100d58239f35b5f80fd5b634e487b7160e01b5f52604160045260245ffd5b51906001600160a01b038216820360a95756fe6080604052600436101561001a575b3615610018575f80fd5b005b5f3560e01c80630559467f1461138f5780630e7d490d1461136c5780631a49dfce14611260578063377887e8146110ec5780633ccfd60b14610ffa5780636cf57d9414610f675780636da19c3514610f4a5780637fdc7fcb14610f1d57806383c17c5514610e4c5780638422a2f214610df35780638da5cb5b14610dcc578063a28889e114610da6578063b99224b114610d64578063c45a015514610d3c578063c7f2156014610832578063d06e72c41461068b578063ead3489a146103a0578063eb1d33f8146101f05763fc1a61d00361000e57346101ec5760203660031901126101ec576001600160401b0361011061142a565b165f9081526007602052604090208054600182015460028301546001600160a01b039182169391169060ff906101ac9061019e61014f60038301611532565b600861015d60048501611532565b93015495604051988863ffffffff8b9a168a5260018060a01b039060201c1660208a01526040890152606088015261016060808801526101608701906115d2565b9085820360a08701526115d2565b9181811660c0850152818160081c1660e0850152818160101c161515610100850152818160181c16151561012085015260201c1615156101408301520390f35b5f80fd5b346101ec576001600160401b0361020636611483565b929093165f908152600760205260409020600281015490916001600160a01b039182169116036103655760049061023e831515611630565b61025260ff600883015460201c1615611674565b01906001600160401b0381116103515761026c82546114d9565b601f811161030c575b505f601f82116001146102ae578192935f926102a3575b50505f19600383901b1c191660019190911b179055005b01359050838061028c565b601f19821693835f5260205f20915f5b8681106102f457508360019596106102db575b505050811b019055005b01355f19600384901b60f8161c191690558380806102d1565b909260206001819286860135815501940191016102be565b825f5260205f20601f830160051c81019160208410610347575b601f0160051c01905b81811061033c5750610275565b5f815560010161032f565b9091508190610326565b634e487b7160e01b5f52604160045260245ffd5b60405162461bcd60e51b81526020600482015260136024820152724e6f74207468652062656e656669636961727960681b6044820152606490fd5b346101ec5760403660031901126101ec576103b9611440565b6024356001600160401b0381116101ec576103d8903690600401611456565b60015460405163b6bb7f9760e01b815233600482015292939290602090829060249082906001600160a01b03165afa908115610680575f91610645575b5015610611576004546001600160401b039081165f9081526007602052604090206001810180546001600160a01b0319166001600160a01b03861617905591600383019181116103515761046982546114d9565b601f81116105cc575b505f601f8211600114610565578190600895965f9261055a575b50508160011b915f199060031b1c19161790555b8054640100000000600160c01b03191633602081901b640100000000600160c01b03169190911782559101805462ff0000191662010000179055600454916001600160401b03831691906001600160a01b0316827fa98740350a04e10bd52f7846736922efc8c45cf66834c194a975d83416861f225f80a46001600160401b0381146105465760016001600160401b03910116906001600160401b031916176004555f80f35b634e487b7160e01b5f52601160045260245ffd5b01359050868061048c565b601f19821690835f5260205f20915f5b8181106105b4575096839291600194600898991061059b575b505050811b0190556104a0565b01355f19600384901b60f8161c1916905586808061058e565b9192602060018192868c013581550194019201610575565b825f5260205f20601f830160051c81019160208410610607575b601f0160051c01905b8181106105fc5750610472565b5f81556001016105ef565b90915081906105e6565b60405162461bcd60e51b815260206004820152600c60248201526b155b985d5d1a1bdc9a5e995960a21b6044820152606490fd5b90506020813d602011610678575b8161066060209383611511565b810103126101ec575180151581036101ec5784610415565b3d9150610653565b6040513d5f823e3d90fd5b346101ec5760203660031901126101ec576001600160401b036106ac61142a565b165f52600760205260405f20335f5260066020526106d760018060a01b0360405f20541615156115f6565b335f526006602052600219600260405f2001545f0b126107f557600881019060ff825460101c16156107b05760050180545f5b81811061074157505061071d3382611ef0565b5460ff60045460401c161461072e57005b805463ffff000019166301000000179055005b61074b8184611ec7565b905460039190911b1c6001600160a01b0316331461076b5760010161070a565b60405162461bcd60e51b815260206004820152601860248201527f4a7564676520616c7265616479207265676973746572656400000000000000006044820152606490fd5b60405162461bcd60e51b815260206004820152601760248201527f4a756467657320616c72656164792061737369676e65640000000000000000006044820152606490fd5b60405162461bcd60e51b81526020600482015260156024820152742737ba1032b737bab3b4103932b83aba30ba34b7b760591b6044820152606490fd5b346101ec5760403660031901126101ec5761084b61142a565b60243590811515908183036101ec576001600160401b03165f818152600760205260409020916108833361087e85611740565b61202f565b15610cf7576008830191825460ff8160201c16610cb25760181c60ff1615610c7a575f9460068501958654905b818110610c155750506108c33387611ef0565b60078501928354600160401b811015610351578060016108e69201865585611f31565b60ff80839493549260031b9316831b921b19161790555f14610bef57825460ff610911818316611f4f565b169060ff19161783555b845460ff60045460401c161461092d57005b60ff80845464010000000064ffff00000019821617809655169360081c169360055460ff60045460401c16908115610bdb57049385811115610aa557505f5b8654811015610a4e578060ff61098460019387611f31565b90549060031b1c165f14610a0a5761099c8189611ec7565b838060a01b0391549060031b1c165f526006602052600260405f20016109c481545f0b611f71565b60ff198254169060ff161790556109db8189611ec7565b838060a01b0391549060031b1c165f5260066020528160405f2001610a01878254611f81565b90555b0161096c565b610a148189611ec7565b838060a01b0391549060031b1c165f526006602052600260405f2001610a3c81545f0b611f60565b60ff198254169060ff16179055610a04565b5091509350610a8b610a837ff77ceb5e091d2da041bc760667f9d5fe7a756949eaf29250ad0e60ca6f4c27d994602094611f8e565b600354611f81565b600355600101546040516001600160a01b039091168152a2005b94505f5b8654811015610b8c578060ff610ac160019387611f31565b90549060031b1c16155f14610b4857610ada8189611ec7565b838060a01b0391549060031b1c165f526006602052600260405f2001610b0281545f0b611f71565b60ff198254169060ff16179055610b198189611ec7565b838060a01b0391549060031b1c165f5260066020528160405f2001610b3f878254611f81565b90555b01610aa9565b610b528189611ec7565b838060a01b0391549060031b1c165f526006602052600260405f2001610b7a81545f0b611f60565b60ff198254169060ff16179055610b42565b5091509350610bc1610a837ff77ceb5e091d2da041bc760667f9d5fe7a756949eaf29250ad0e60ca6f4c27d994602094611f8e565b600355600201546040516001600160a01b039091168152a2005b634e487b7160e01b5f52601260045260245ffd5b825461ff00610c0360ff8360081c16611f4f565b60081b169061ff00191617835561091b565b610c1f8189611ec7565b905460039190911b1c6001600160a01b03163314610c3f576001016108b0565b60405162461bcd60e51b8152602060048201526013602482015272129d5919d948185b1c9958591e481d9bdd1959606a1b6044820152606490fd5b60405162461bcd60e51b815260206004820152601060248201526f2234b9b83aba32903737ba1037b832b760811b6044820152606490fd5b60405162461bcd60e51b815260206004820152601860248201527f4469737075746520616c7265616479207265736f6c76656400000000000000006044820152606490fd5b60405162461bcd60e51b815260206004820152601960248201527f4a75646765206e6f7420616c6c6f77656420746f20766f7465000000000000006044820152606490fd5b346101ec575f3660031901126101ec576001546040516001600160a01b039091168152602090f35b346101ec5760203660031901126101ec576001600160401b03610d8561142a565b165f526007602052602060ff600860405f200154821c166040519015158152f35b346101ec575f3660031901126101ec5760206001600160401b0360045416604051908152f35b346101ec575f3660031901126101ec575f546040516001600160a01b039091168152602090f35b346101ec5760203660031901126101ec576001600160a01b03610e14611440565b165f526006602052606060405f2060018060a01b0381541690600260018201549101545f0b9060405192835260208301526040820152f35b346101ec5760203660031901126101ec57610e65611440565b610e7960018060a01b035f541633146116b3565b600154906001600160a01b038216610ee2576001600160a01b0316908115610eab576001600160a01b03191617600155005b60405162461bcd60e51b815260206004820152600f60248201526e496e76616c6964206164647265737360881b6044820152606490fd5b60405162461bcd60e51b8152602060048201526013602482015272119858dd1bdc9e48185b1c9958591e481cd95d606a1b6044820152606490fd5b346101ec5760203660031901126101ec576020610f40610f3b61142a565b611e3a565b6040519015158152f35b346101ec575f3660031901126101ec576020600554604051908152f35b346101ec5760203660031901126101ec5760043560ff81168082036101ec57610f9a60018060a01b035f541633146116b3565b15610fbc5760ff60401b6004549160401b169060ff60401b1916176004555f80f35b60405162461bcd60e51b815260206004820152601660248201527504d7573742062652067726561746572207468616e20360541b6044820152606490fd5b346101ec575f3660031901126101ec575f546001600160a01b03166110203382146116b3565b6002546040516370a0823160e01b81523060048201526001600160a01b0390911691602082602481865afa918215610680575f926110b8575b5060035480830392808411610546571461107c5761107692611fa1565b5f600355005b60405162461bcd60e51b81526020600482015260146024820152734e6f20505955534420746f20776974686472617760601b6044820152606490fd5b9091506020813d6020116110e4575b816110d460209383611511565b810103126101ec57519083611059565b3d91506110c7565b346101ec576001600160401b0361110236611483565b929093165f908152600760205260409020600181015490916001600160a01b039182169116036112275760039061113a831515611630565b61114e60ff600883015460201c1615611674565b01906001600160401b0381116103515761116882546114d9565b601f81116111e2575b505f601f821160011461119e578192935f926102a35750505f19600383901b1c191660019190911b179055005b601f19821693835f5260205f20915f5b8681106111ca57508360019596106102db57505050811b019055005b909260206001819286860135815501940191016111ae565b825f5260205f20601f830160051c8101916020841061121d575b601f0160051c01905b8181106112125750611171565b5f8155600101611205565b90915081906111fc565b60405162461bcd60e51b81526020600482015260116024820152702737ba103a3432903932b8bab2b9ba32b960791b6044820152606490fd5b346101ec575f3660031901126101ec57335f908152600660205260409020546001600160a01b031661133257604051606081018181106001600160401b03821117610351576040523381526002602082015f815260408301905f8252335f52600660205260405f209360018060a01b039060018060a01b03905116166bffffffffffffffffffffffff60a01b855416178455516001840155515f0b91019060ff198254169060ff16179055337f582bba51a749ccba1f3ba17ddd7b05ab70236e0ba51aacaeb1788ba34b5b4a735f80a2005b60405162461bcd60e51b8152602060048201526012602482015271105b1c9958591e481c9959da5cdd195c995960721b6044820152606490fd5b346101ec575f3660031901126101ec57602060ff60045460401c16604051908152f35b346101ec575f3660031901126101ec57335f90815260066020526040902080546001600160a01b0316906001906113c78315156115f6565b019081549081156113ec575f90925560025461001892906001600160a01b0316611fa1565b60405162461bcd60e51b81526020600482015260166024820152754e6f2062616c616e636520746f20776974686472617760501b6044820152606490fd5b600435906001600160401b03821682036101ec57565b600435906001600160a01b03821682036101ec57565b9181601f840112156101ec578235916001600160401b0383116101ec57602083818601950101116101ec57565b60606003198201126101ec576004356001600160401b03811681036101ec57916024356001600160a01b03811681036101ec5791604435906001600160401b0382116101ec576114d591600401611456565b9091565b90600182811c92168015611507575b60208310146114f357565b634e487b7160e01b5f52602260045260245ffd5b91607f16916114e8565b90601f801991011681019081106001600160401b0382111761035157604052565b9060405191825f825492611545846114d9565b80845293600181169081156115b0575060011461156c575b5061156a92500383611511565b565b90505f9291925260205f20905f915b81831061159457505090602061156a928201015f61155d565b602091935080600191548385890101520191019091849261157b565b90506020925061156a94915060ff191682840152151560051b8201015f61155d565b805180835260209291819084018484015e5f828201840152601f01601f1916010190565b156115fd57565b60405162461bcd60e51b815260206004820152600b60248201526a4e6f742061206a7564676560a81b6044820152606490fd5b1561163757565b60405162461bcd60e51b815260206004820152601560248201527450726f6f662063616e6e6f7420626520656d70747960581b6044820152606490fd5b1561167b57565b60405162461bcd60e51b815260206004820152601060248201526f111a5cdc1d5d19481c995cdbdb1d995960821b6044820152606490fd5b156116ba57565b60405162461bcd60e51b815260206004820152600d60248201526c2737ba103a34329027bbb732b960991b6044820152606490fd5b90604051918281549182825260208201905f5260205f20925f5b81811061171e57505061156a92500383611511565b84546001600160a01b0316835260019485019487945060209093019201611709565b906040516101c081018181106001600160401b03821117610351576040908152835463ffffffff811683526001600160a01b03602091821c811691840191909152600185015481169183019190915260028401541660608201529182906117a960038201611532565b60808301526117ba60048201611532565b60a08301526117cb600582016116ef565b60c08301526117dc600682016116ef565b60e0830152600781016040519081602082549182815201915f5260205f20905f915b81601f840110611c5857846008946101a0979460ff9794611921945491818110611c43575b818110611c2c575b818110611c14575b818110611bfc575b818110611be5575b818110611bcd575b818110611bb5575b818110611b9d575b818110611b85575b818110611b6d575b818110611b55575b818110611b3d575b818110611b25575b818110611b0d575b818110611af5575b818110611add575b818110611ac5575b818110611aad575b818110611a95575b818110611a7d575b818110611a65575b818110611a4d575b818110611a35575b818110611a1d575b818110611a05575b8181106119ed575b8181106119d5575b8181106119bd575b8181106119a5575b81811061198d575b818110611975575b10611965575b500382611511565b6101008601520154818116610120850152818160081c16610140850152818160101c161515610160850152818160181c16151561018085015260201c161515910152565b60f81c151581526020015f611919565b9260206001918b8560f01c1615158152019301611913565b9260206001918b8560e81c161515815201930161190b565b9260206001918b8560e01c1615158152019301611903565b9260206001918b8560d81c16151581520193016118fb565b9260206001918b8560d01c16151581520193016118f3565b9260206001918b8560c81c16151581520193016118eb565b9260206001918b8560c01c16151581520193016118e3565b9260206001918b8560b81c16151581520193016118db565b9260206001918b8560b01c16151581520193016118d3565b9260206001918b8560a81c16151581520193016118cb565b9260206001918b8560a01c16151581520193016118c3565b9260206001918b8560981c16151581520193016118bb565b9260206001918b8560901c16151581520193016118b3565b9260206001918b8560881c16151581520193016118ab565b9260206001918b8560801c16151581520193016118a3565b9260206001918b8560781c161515815201930161189b565b9260206001918b8560701c1615158152019301611893565b9260206001918b8560681c161515815201930161188b565b9260206001918b8560601c1615158152019301611883565b9260206001918b8560581c161515815201930161187b565b9260206001918b8560501c1615158152019301611873565b9260206001918b8560481c161515815201930161186b565b9260206001918b8560401c1615158152019301611863565b9260206001918b8560381c161515815201930161185b565b9260206001918b8560301c1615158152019301611853565b9260206001918b8560281c161515815201930161184b565b9260206001918b85831c1615158152019301611843565b9260206001918b8560181c161515815201930161183b565b9260206001918b8560101c1615158152019301611833565b9260206001918b858c1c161515815201930161182b565b9260206001918b851615158152019301611823565b926001610400602092865460ff81161515825260ff8160081c1615158583015260ff8160101c161515604083015260ff8160181c161515606083015260ff81861c161515608083015260ff8160281c16151560a083015260ff8160301c16151560c083015260ff8160381c16151560e083015260ff8160401c16151561010083015260ff8160481c16151561012083015260ff8160501c16151561014083015260ff8160581c16151561016083015260ff8160601c16151561018083015260ff8160681c1615156101a083015260ff8160701c1615156101c083015260ff8160781c1615156101e083015260ff8160801c16151561020083015260ff8160881c16151561022083015260ff8160901c16151561024083015260ff8160981c16151561026083015260ff8160a01c16151561028083015260ff8160a81c1615156102a083015260ff8160b01c1615156102c083015260ff8160b81c1615156102e083015260ff8160c01c16151561030083015260ff8160c81c16151561032083015260ff8160d01c16151561034083015260ff8160d81c16151561036083015260ff8160e01c16151561038083015260ff8160e81c1615156103a083015260ff8160f01c1615156103c083015260f81c15156103e08201520194019201916117fe565b6001600160401b03165f526007602052611e5660405f20611740565b6101a081015115611e825760ff610140816101208401511692015116105f14611e7e57600190565b5f90565b60405162461bcd60e51b815260206004820152601860248201527f44697370757465206e6f74207265736f6c7665642079657400000000000000006044820152606490fd5b8054821015611edc575f5260205f2001905f90565b634e487b7160e01b5f52603260045260245ffd5b8054600160401b81101561035157611f0d91600182018155611ec7565b81546001600160a01b0393841660039290921b91821b9390911b1916919091179055565b9190918054831015611edc575f52601f60205f208360051c01921690565b60ff1660ff81146105465760010190565b5f0b607f198114610546575f190190565b5f0b607f81146105465760010190565b9190820180921161054657565b8181029291811591840414171561054657565b60405163a9059cbb60e01b60208281019182526001600160a01b03909416602483015260448083019590955293815290925f91611fdf606482611511565b519082855af115610680575f513d61202657506001600160a01b0381163b155b6120065750565b635274afe760e01b5f9081526001600160a01b0391909116600452602490fd5b60011415611fff565b905f5b60c0830151805182101561206c57600582901b01602001516001600160a01b0383811691161461206457600101612032565b505050600190565b505050505f9056fea26469706673582212202f50dc7c2d30789959faa9e26c9aa0e965802f0ac199a4ec11c59c8c8252f2cf64736f6c634300081e0033","linkReferences":{}},"methodIdentifiers":{"checkIfDisputeIsResolved(uint64)":"b99224b1","createDispute(address,string)":"ead3489a","disputeCount()":"a28889e1","disputePrice()":"6da19c35","disputes(uint64)":"fc1a61d0","executeDisputeResult(uint64)":"7fdc7fcb","factory()":"c45a0155","judgeWithdraw()":"0559467f","judges(address)":"8422a2f2","numberOfVotes()":"0e7d490d","owner()":"8da5cb5b","registerAsJudge()":"1a49dfce","registerToVote(uint64)":"d06e72c4","setFactoryAddress(address)":"83c17c55","updateDisputeForBeneficiary(uint64,address,string)":"eb1d33f8","updateDisputeForPayer(uint64,address,string)":"377887e8","updateNumberOfVotes(uint8)":"6cf57d94","vote(uint64,bool)":"c7f21560","withdraw()":"3ccfd60b"},"id":2}