{"abi":[{"type":"constructor","inputs":[{"name":"_owner","type":"address","internalType":"address"}],"stateMutability":"nonpayable"},{"type":"receive","stateMutability":"payable"},{"type":"function","name":"createMarketplace","inputs":[{"name":"_feePercent","type":"uint8","internalType":"uint8"},{"name":"_token","type":"address","internalType":"address"}],"outputs":[{"name":"","type":"address","internalType":"address"}],"stateMutability":"nonpayable"},{"type":"function","name":"isDeployedMarketplace","inputs":[{"name":"_marketplace","type":"address","internalType":"address"}],"outputs":[{"name":"","type":"bool","internalType":"bool"}],"stateMutability":"view"},{"type":"function","name":"isMarketplace","inputs":[{"name":"","type":"address","internalType":"address"}],"outputs":[{"name":"","type":"bool","internalType":"bool"}],"stateMutability":"view"},{"type":"function","name":"owner","inputs":[],"outputs":[{"name":"","type":"address","internalType":"address"}],"stateMutability":"view"},{"type":"function","name":"protocol","inputs":[],"outputs":[{"name":"","type":"address","internalType":"address"}],"stateMutability":"view"},{"type":"function","name":"setProtocolAddress","inputs":[{"name":"_protocol","type":"address","internalType":"address"}],"outputs":[],"stateMutability":"nonpayable"},{"type":"event","name":"MarketplaceDeployed","inputs":[{"name":"marketplace","type":"address","indexed":true,"internalType":"address"},{"name":"creator","type":"address","indexed":true,"internalType":"address"}],"anonymous":false}],"bytecode":{"object":"0x608034607057601f613e4f38819003918201601f19168301916001600160401b03831184841017607457808492602094604052833981010312607057516001600160a01b03811690819003607057600180546001600160a01b031916919091179055604051613dc690816100898239f35b5f80fd5b634e487b7160e01b5f52604160045260245ffdfe608080604052600436101561001c575b50361561001a575f80fd5b005b5f3560e01c908163417ed2581461030a5750806358e47004146101ed5780638ce74426146101c65780638da5cb5b1461019e578063b6bb7f97146101615763f578159c1461006a575f61000f565b3461015d57604036600319011261015d5760043560ff811680910361015d576024356001600160a01b038116919082900361015d5760018060a01b035f541660405192613a37918285019185831067ffffffffffffffff84111761014957608094869461035a86393384526020840152604083015260608201520301905ff0801561013e5760209060018060a01b0316805f526002825260405f20600160ff198254161790556040519033817fbc65d586f6f33062a39deffb1d96792b2d1d59465b15b703573d2815506d14215f80a38152f35b6040513d5f823e3d90fd5b634e487b7160e01b5f52604160045260245ffd5b5f80fd5b3461015d57602036600319011261015d576001600160a01b03610182610343565b165f526002602052602060ff60405f2054166040519015158152f35b3461015d575f36600319011261015d576001546040516001600160a01b039091168152602090f35b3461015d575f36600319011261015d575f546040516001600160a01b039091168152602090f35b3461015d57602036600319011261015d57610206610343565b6001546001600160a01b031633036102bb575f54906001600160a01b03821661027f576001600160a01b0316908115610248576001600160a01b031916175f55005b60405162461bcd60e51b815260206004820152600f60248201526e496e76616c6964206164647265737360881b6044820152606490fd5b60405162461bcd60e51b8152602060048201526014602482015273141c9bdd1bd8dbdb08185b1c9958591e481cd95d60621b6044820152606490fd5b60405162461bcd60e51b815260206004820152602160248201527f4f6e6c79206f776e65722063616e2063616c6c20746869732066756e6374696f6044820152603760f91b6064820152608490fd5b3461015d57602036600319011261015d576020906001600160a01b0361032e610343565b165f526002825260ff60405f20541615158152f35b600435906001600160a01b038216820361015d5756fe60a0346100f757601f613a3738819003918201601f19168301916001600160401b038311848410176100fb578084926080946040528339810103126100f7576100478161010f565b9060208101519160ff831683036100f75760019068ff000000000000000061007d60606100766040870161010f565b950161010f565b94835f556006549260805260401b1690828060481b031916171760065560018060a01b031660018060a01b0319600254161760025560018060a01b031660018060a01b031960035416176003556040516139139081610124823960805181818161025e01528181610e0e01528181611d06015261302e0152f35b5f80fd5b634e487b7160e01b5f52604160045260245ffd5b51906001600160a01b03821682036100f75756fe6080806040526004361015610012575f80fd5b5f905f3560e01c90816303988f8414613141575080631bfefc401461311957806322e669d3146130f157806332a2c5d0146130d7578063349f937c1461300f5780633ccfd60b14612e2d57806341f76ecd14612ac55780634c01b0a114612aa85780635af9846e146129f65780635f7e54741461277057806370a726a71461209057806377d7ed4d14611ef85780637fd6f15c14611ed45780638ae36aa814611d5e5780638ce7442614611d355780638da5cb5b14611cf057806395d222dc14611cc95780639c75dd6f14611b2c578063a03e4bc314611b03578063a3e173b214611483578063a87430ba146113f5578063bbb5cd421461116b578063cf69af2214611032578063d097281414610f0b578063d26106e314610df7578063e07ee9bd14610b1e578063eecbb7ac146102b1578063f4838176146102125763fc1a61d01461015d575f80fd5b3461020f57602036600319011261020f576040906001600160401b0361018161321f565b168152600960205220805461019860018301613327565b9160ff6101f560046101ac60028501613327565b930154926101e760405196866001600160401b03899816885260018060a01b039060401c16602088015260c0604088015260c08701906133c7565b9085820360608701526133c7565b918181161515608085015260081c16151560a08301520390f35b80fd5b503461020f57602036600319011261020f5760043560ff8116908181036102ad577f55b42c767b094dce48683c75e789fb605d20368d04c8e36770604fb089f4120d9160209161028c337f00000000000000000000000000000000000000000000000000000000000000006001600160a01b0316146133eb565b6006805460ff60401b1916604092831b60ff60401b1617905551908152a180f35b8280fd5b503461020f576102c036613235565b916001600160401b03811680855260096020526102eb6001600160401b03604087205416151561368d565b845260096020526040842092604051610303816132eb565b84546001600160401b038116825260401c6001600160a01b0316602082015261032e60018601613327565b604082015261033f60028601613327565b9460608201958652600381016040519081602082549182815201918a5260208a20908a915b81601f84011061093c57846004946001600160401b0398979460ff979461048d945491818110610927575b81811061090f575b8181106108f7575b8181106108df575b8181106108c8575b8181106108b0575b818110610898575b818110610880575b818110610868575b818110610850575b818110610838575b818110610820575b818110610808575b8181106107f0575b8181106107d8575b8181106107c0575b8181106107a8575b818110610790575b818110610778575b818110610760575b818110610748575b818110610730575b818110610718575b818110610700575b8181106106e8575b8181106106d0575b8181106106b8575b8181106106a0575b818110610688575b818110610670575b818110610658575b10610648575b500382613306565b60808501520154818116151560a084015260081c16151560c0820152511685526008602052604085206040516104c2816132cf565b81546001600160401b038116825260018060a01b039060401c16602082015260e060ff600460018060a01b0360018601541694856040860152600281015460608601526003810154608086015201546001600160401b03811660a0850152818160401c16151560c085015260481c16151591015233036105f9576020859461054b8315156136d2565b61058e6003825184866040519683889451918291018486015e8301620103e160ed1b83820152818b6023830137010189838201520301601f198101845283613306565b526003546001600160a01b0316803b156105f5576105c893858094604051968795869485936360c9b0df60e11b8552339060048601613736565b03925af180156105ea576105d95750f35b816105e391613306565b61020f5780f35b6040513d84823e3d90fd5b8480fd5b60405162461bcd60e51b815260206004820152602160248201527f4f6e6c792062656e65666963696172792063616e206164642065766964656e636044820152606560f81b6064820152608490fd5b60f81c151581526020015f610485565b9260206001918b8560f01c161515815201930161047f565b9260206001918b8560e81c1615158152019301610477565b9260206001918b8560e01c161515815201930161046f565b9260206001918b8560d81c1615158152019301610467565b9260206001918b8560d01c161515815201930161045f565b9260206001918b8560c81c1615158152019301610457565b9260206001918b8560c01c161515815201930161044f565b9260206001918b8560b81c1615158152019301610447565b9260206001918b8560b01c161515815201930161043f565b9260206001918b8560a81c1615158152019301610437565b9260206001918b8560a01c161515815201930161042f565b9260206001918b8560981c1615158152019301610427565b9260206001918b8560901c161515815201930161041f565b9260206001918b8560881c1615158152019301610417565b9260206001918b8560801c161515815201930161040f565b9260206001918b8560781c1615158152019301610407565b9260206001918b8560701c16151581520193016103ff565b9260206001918b8560681c16151581520193016103f7565b9260206001918b8560601c16151581520193016103ef565b9260206001918b8560581c16151581520193016103e7565b9260206001918b8560501c16151581520193016103df565b9260206001918b8560481c16151581520193016103d7565b9260206001918b8560401c16151581520193016103cf565b9260206001918b8560381c16151581520193016103c7565b9260206001918b8560301c16151581520193016103bf565b9260206001918b8560281c16151581520193016103b7565b9260206001918b85831c16151581520193016103af565b9260206001918b8560181c16151581520193016103a7565b9260206001918b8560101c161515815201930161039f565b9260206001918b8560081c1615158152019301610397565b9260206001918b85161515815201930161038f565b926001610400602092865460ff81161515825260ff8160081c1615158583015260ff8160101c161515604083015260ff8160181c161515606083015260ff81861c161515608083015260ff8160281c16151560a083015260ff8160301c16151560c083015260ff8160381c16151560e083015260ff8160401c16151561010083015260ff8160481c16151561012083015260ff8160501c16151561014083015260ff8160581c16151561016083015260ff8160601c16151561018083015260ff8160681c1615156101a083015260ff8160701c1615156101c083015260ff8160781c1615156101e083015260ff8160801c16151561020083015260ff8160881c16151561022083015260ff8160901c16151561024083015260ff8160981c16151561026083015260ff8160a01c16151561028083015260ff8160a81c1615156102a083015260ff8160b01c1615156102c083015260ff8160b81c1615156102e083015260ff8160c01c16151561030083015260ff8160c81c16151561032083015260ff8160d01c16151561034083015260ff8160d81c16151561036083015260ff8160e01c16151561038083015260ff8160e81c1615156103a083015260ff8160f01c1615156103c083015260f81c15156103e0820152019401920191610364565b503461020f57606036600319011261020f57610b386131dc565b60243590604435906001600160401b038216809203610df357610b5c8315156135b6565b6001600160a01b0316908115610db657338452600760205260ff600260408620015460181c1615610d6657818452600760205260ff600260408620015460101c1615610d21576006546001600160401b0316604051610bba816132cf565b8181526020808201858152336040808501828152606086018a8152608087018c815260a08801998a5260c088018d815260e089018e8152998e5260088852848e2098518954975168010000000000000000600160e01b0390871b166001600160401b039182166001600160e01b03199099169890981797909717895592516001890180546001600160a01b039092166001600160a01b03199092169190911790559051600288015551600387015596516004909501805497519651151560481b60ff60481b16961515821b60ff60401b1695841669ffffffffffffffffffff199098169790971794909417949094179094556006549151958652909492851693919284917fd35f141727fcc75ba4bab38597e0c343ce3a0e12675637fe0577ef382643c56291a46001016001600160401b038111610d0d576001600160401b0316906001600160401b0319161760065580f35b634e487b7160e01b83526011600452602483fd5b60405162461bcd60e51b815260206004820152601e60248201527f546172676574206e6f74207265676973746572656420617320706179657200006044820152606490fd5b60405162461bcd60e51b815260206004820152602260248201527f55736572206e6f7420726567697374657265642061732062656e656669636961604482015261727960f01b6064820152608490fd5b60405162461bcd60e51b8152602060048201526015602482015274496e76616c6964207061796572206164647265737360581b6044820152606490fd5b8380fd5b503461020f578060031936011261020f57610e3c337f00000000000000000000000000000000000000000000000000000000000000006001600160a01b0316146133eb565b610e44613823565b60055460048054600254604051631a4ca37b60e21b81526001600160a01b039182169381019390935260248301849052306044840152602091839160649183918891165af18015610f0057610ecb575b5060207f32b7da2ef8b0f3c7195c6dd0226d68a59c5a7580b170e93c2c81f320ab7041b59183600555604051908152a16001815580f35b6020813d602011610ef8575b81610ee460209383613306565b81010312610ef457506020610e94565b5f80fd5b3d9150610ed7565b6040513d85823e3d90fd5b503461020f57604036600319011261020f57610f2561321f565b6024359061ffff82168092036102ad576001600160401b0316908183526008602052610f59600260408520015415156134e4565b818352600860205260408084208054600492610f819133911c6001600160a01b031614613526565b01610f9360ff825460401c1615613572565b8115610fe257805467ffffffffffffffff19166001600160401b0383161790556040519081527fc686a503d2e138af3f47ed287395032d6b4aba063acf3d037395719f898d05b590602090a280f35b60405162461bcd60e51b815260206004820152602260248201527f4475726174696f6e206d7573742062652067726561746572207468616e207a65604482015261726f60f01b6064820152608490fd5b503461020f57606036600319011261020f5761104c6131f2565b7f0dfb77a1d959666c200e248287b029d1ec4bf434967e7ed82bc3865c47a4de32611075613201565b61107d613210565b90338552600760205261109d3360018060a01b0360408820541614613427565b818185808115611164575b801561115d575b6110b89061346f565b611136575b61110f575b6110e8575b6040805194151585529015156020850152901515908301523391606090a280f35b338552600760205260408520600201805464ff0000000019166401000000001790556110c7565b50338552600760205260408520600201805463ff00000019166301000000179055816110c2565b5050338552600760205260408520600201805462ff000019166201000017905581816110bd565b50826110af565b50816110a8565b503461020f57602036600319011261020f576001600160401b0361118d61321f565b1680825260086020526111a8600260408420015415156134e4565b80825260086020526040822081835260086020526111d660018060a01b03604085205460401c163314613766565b60048101600160401b81546111f160ff8260401c1615613572565b60ff60401b1916179055426003820155600280549101805490916112229190309033906001600160a01b0316613841565b6004546001600160a01b031680156113bc5760025460405163095ea7b360e01b81526004810192909252602482018590526020908290604490829088906001600160a01b03165af180156113945761139f575b5060025460048054835460405163095ea7b360e01b81526001600160a01b039283169381019390935260248301529091602091839160449183918991165af1801561139457611367575b50600454600254825485926001600160a01b03908116921690823b15610df3576084849283604051958694859363617ba03760e01b8552600485015260248401523060448401528160648401525af180156105ea57611352575b50506113289054600554613680565b6005557f038c4c0c00ebf4ee5498a2dd5014b1ecd97e43547cedc5b51bb593ebc0f72a3d8280a280f35b8161135c91613306565b6102ad57825f611319565b6113889060203d60201161138d575b6113808183613306565b8101906137bd565b6112bf565b503d611376565b6040513d86823e3d90fd5b6113b79060203d60201161138d576113808183613306565b611275565b60405162461bcd60e51b815260206004820152601160248201527010585d99481c1bdbdb081b9bdd081cd95d607a1b6044820152606490fd5b503461020f57602036600319011261020f5760e0906001600160a01b0361141a6131dc565b168152600760205260ff6040822060018060a01b03815416926002600183015492015491604051948552602085015281810b60408501528160081c900b6060840152818160101c1615156080840152818160181c16151560a084015260201c16151560c0820152f35b503461020f57604036600319011261020f5761149d61321f565b602435906001600160401b0382168092036102ad576001600160401b03169081835260096020526040832090604051906114d6826132eb565b82546001600160401b038116835260401c6001600160a01b0316602083019081529261150460018201613327565b604084015261151560028201613327565b606084015260405160038201805480835290885260208089209083019189915b81601f840110611921579360ff959381936116359360049754918181106109275781811061090f578181106108f7578181106108df578181106108c8578181106108b057818110610898578181106108805781811061086857818110610850578181106108385781811061082057818110610808578181106107f0578181106107d8578181106107c0578181106107a857818110610790578181106107785781811061076057818110610748578181106107305781811061071857818110610700578181106106e8578181106106d0578181106106b8578181106106a0578181106106885781811061067057818110610658571061064857500382613306565b60808601520154818116151560a085015260081c16151560c0830152845260086020526040842060405191611669836132cf565b8154936001600160401b0385168452602084019460018060a01b039060401c16855260018060a01b0360018401541690604085019482865260e060ff6004600288015497606085019889526003810154608086015201546001600160401b03811660a0850152818160401c16151560c085015260481c16151591015260018060a01b039051163314908115611917575b50156118c357600354604051637fdc7fcb60e01b8152600481018790529190602090839060249082906001600160a01b03165afa9182156118b857879261188c575b5061176783606461175f6001600160401b0395965160ff60065460401c16906134bb565b049051613462565b831561187c5785516001600160a01b03165b6001600160a01b031688526007602052604088206001018054909161179d91613680565b90555116855260086020526117cc6040862060045f918281558260018201558260028201558260038201550155565b8385526009602052846004604082208281556117ea600182016137d5565b6117f6600282016137d5565b6003810180548482558061185c575b505001551561184b5750516001600160a01b03165b6001600160a01b0316907f74e3ebb1ef36edf4f67915c54cda3c6ac6e9eef42b9db08c74aac0cdeb41a3818380a380f35b516001600160a01b0316905061181a565b611875918552601f60208620910160051c8101906134ce565b5f80611805565b84516001600160a01b0316611779565b6001600160401b0392506118b16117679160203d60201161138d576113808183613306565b925061173b565b6040513d89823e3d90fd5b60405162461bcd60e51b815260206004820152602660248201527f4f6e6c7920696e766f6c76656420706172746965732063616e2065786563757460448201526565207468697360d01b6064820152608490fd5b905033145f6116f9565b926001610400602092865460ff81161515825260ff8160081c1615158583015260ff8160101c161515604083015260ff8160181c161515606083015260ff81861c161515608083015260ff8160281c16151560a083015260ff8160301c16151560c083015260ff8160381c16151560e083015260ff8160401c16151561010083015260ff8160481c16151561012083015260ff8160501c16151561014083015260ff8160581c16151561016083015260ff8160601c16151561018083015260ff8160681c1615156101a083015260ff8160701c1615156101c083015260ff8160781c1615156101e083015260ff8160801c16151561020083015260ff8160881c16151561022083015260ff8160901c16151561024083015260ff8160981c16151561026083015260ff8160a01c16151561028083015260ff8160a81c1615156102a083015260ff8160b01c1615156102c083015260ff8160b81c1615156102e083015260ff8160c01c16151561030083015260ff8160c81c16151561032083015260ff8160d01c16151561034083015260ff8160d81c16151561036083015260ff8160e01c16151561038083015260ff8160e81c1615156103a083015260ff8160f01c1615156103c083015260f81c15156103e0820152019401920191611535565b503461020f578060031936011261020f576004546040516001600160a01b039091168152602090f35b503461020f57602036600319011261020f576001600160401b03611b4e61321f565b168082526008602052604080832054611b74913391901c6001600160a01b031614613766565b8082526008602052611b8e600260408420015415156134e4565b808252600860205260408220611c4e60405191611baa836132cf565b80546001600160401b038116845260018060a01b039060401c166020840152611c3860018060a01b036001830154169360408101948552611c31600460028501549460608401958652600381015460808501520154916001600160401b03831660a082015260ff60e0818560401c161515928360c0820152019360481c1615158352613601565b5115613641565b606461175f825160ff60065460401c16906134bb565b90516001600160a01b0316835260076020526040832060010180549091611c7491613680565b90558082526008602052611ca26040832060045f918281558260018201558260028201558260038201550155565b7f7eb62d726596228b1e7361e9eedaed2958f01c80461ad7331780d0cc3bd142b08280a280f35b503461020f578060031936011261020f5760206001600160401b0360065416604051908152f35b503461020f578060031936011261020f576040517f00000000000000000000000000000000000000000000000000000000000000006001600160a01b03168152602090f35b503461020f578060031936011261020f576003546040516001600160a01b039091168152602090f35b503461020f57602036600319011261020f576001600160401b03611d8061321f565b168082526008602052611d9b600260408420015415156134e4565b80825260086020526040822060405190611db4826132cf565b600481546001600160401b038116845260018060a01b039060401c169182602085015260018060a01b03600182015416604085015260028101546060850152600381015460808501520154916001600160401b03831660a082015260e060ff60c0830194818160401c161515865260481c1615159101523303611e8f57611e3c905115613572565b8082526008602052611e686040832060045f918281558260018201558260028201558260038201550155565b7fcb418abc3be7ad668aacbc512e87411852b0126017fc9f737da814611a0f34fc8280a280f35b60405162461bcd60e51b815260206004820152601e60248201527f4f6e6c792070617965722063616e2072656a65637420746865206465616c00006044820152606490fd5b503461020f578060031936011261020f57602060ff60065460401c16604051908152f35b503461020f576001600160401b03611f0f36613235565b9192909216918284526008602052611f2f600260408620015415156134e4565b8284526008602052604080852054611f54913391901c6001600160a01b031614613766565b600254600354611f78916302faf080916001600160a01b0390811691339116613841565b82845260086020526004604085200191825492611f9a60ff8560401c16613601565b60ff8460481c16612053576901000000000000000000869460ff60481b191617905560018060a01b036003541691823b15610df35761200092849283604051809681958294637569a44d60e11b8452336004850152604060248501526044840191613716565b03925af180156105ea5761203a575b505033907f5dfc3bddc38be30c1160002859640a593dd8bf1a7eee4048456f4fc7466c0bc48380a380f35b8161204491613306565b61204f57815f61200f565b5080fd5b60405162461bcd60e51b81526020600482015260156024820152741119585b08185b1c9958591e48191a5cdc1d5d1959605a1b6044820152606490fd5b5034610ef45761209f36613235565b6001600160401b0383929316805f5260096020526120cb6001600160401b0360405f205416151561368d565b5f52600960205260405f206040516120e2816132eb565b81546001600160401b038116825260401c6001600160a01b0316602082019081529161211060018201613327565b604083015261212160028201613327565b6060830152600381016040519081602082549182815201915f5260205f20905f915b81601f84011061258e578460049460c0979460ff979461225d945491818110612579575b818110612561575b818110612549575b818110612531575b81811061251a575b818110612502575b8181106124ea575b8181106124d2575b8181106124ba575b8181106124a2575b81811061248a575b818110612472575b81811061245a575b818110612442575b81811061242a575b818110612412575b8181106123fa575b8181106123e2575b8181106123ca575b8181106123b2575b81811061239a575b818110612382575b81811061236a575b818110612352575b81811061233b578181106106d0578181106106b8578181106106a0578181106106885781811061067057818110610658571061064857500382613306565b60808601520154818116151560a085015260081c161515910152516001600160a01b031633036122f6576122928115156136d2565b6003546001600160a01b0316803b15610ef4576122cb935f809460405196879586948593635f8c87ed60e11b8552339060048601613736565b03925af180156122eb576122dd575080f35b6122e991505f90613306565b005b6040513d5f823e3d90fd5b60405162461bcd60e51b815260206004820152601f60248201527f4f6e6c79207265717565737465722063616e206164642065766964656e6365006044820152606490fd5b9260206001918b858e1c161515815201930161044f565b9260206001918b8560b81c161515815201930161221f565b9260206001918b8560b01c1615158152019301612217565b9260206001918b8560a81c161515815201930161220f565b9260206001918b8560a01c1615158152019301612207565b9260206001918b8560981c16151581520193016121ff565b9260206001918b8560901c16151581520193016121f7565b9260206001918b8560881c16151581520193016121ef565b9260206001918b8560801c16151581520193016121e7565b9260206001918b8560781c16151581520193016121df565b9260206001918b8560701c16151581520193016121d7565b9260206001918b8560681c16151581520193016121cf565b9260206001918b8560601c16151581520193016121c7565b9260206001918b8560581c16151581520193016121bf565b9260206001918b8560501c16151581520193016121b7565b9260206001918b8560481c16151581520193016121af565b9260206001918b8560401c16151581520193016121a7565b9260206001918b8560381c161515815201930161219f565b9260206001918b8560301c1615158152019301612197565b9260206001918b8560281c161515815201930161218f565b9260206001918b85831c1615158152019301612187565b9260206001918b8560181c161515815201930161217f565b9260206001918b8560101c1615158152019301612177565b9260206001918b8560081c161515815201930161216f565b9260206001918b851615158152019301612167565b926001610400602092865460ff81161515825260ff8160081c1615158583015260ff8160101c161515604083015260ff8160181c161515606083015260ff81861c161515608083015260ff8160281c16151560a083015260ff8160301c16151560c083015260ff8160381c16151560e083015260ff8160401c16151561010083015260ff8160481c16151561012083015260ff8160501c16151561014083015260ff8160581c16151561016083015260ff8160601c16151561018083015260ff8160681c1615156101a083015260ff8160701c1615156101c083015260ff8160781c1615156101e083015260ff8160801c16151561020083015260ff8160881c16151561022083015260ff8160901c16151561024083015260ff8160981c16151561026083015260ff8160a01c16151561028083015260ff8160a81c1615156102a083015260ff8160b01c1615156102c083015260ff8160b81c1615156102e083015260ff8160c01c16151561030083015260ff8160c81c16151561032083015260ff8160d01c16151561034083015260ff8160d81c16151561036083015260ff8160e01c16151561038083015260ff8160e81c1615156103a083015260ff8160f01c1615156103c083015260f81c15156103e0820152019401920191612143565b34610ef4576020366003190112610ef4576001600160401b0361279161321f565b165f818152600860205260409020600101546001600160a01b031633036129a357805f5260086020526127cc600260405f20015415156134e4565b805f52600860205260405f20604051906127e5826132cf565b80546001600160401b038116835260018060a01b039060401c16602083015260018060a01b036001820154169160408101928352620151806001600160401b03600284015493606084019485526128756004600383015492608087019384520154611c3160a0870196858316885260ff60e0818560401c161515928360c0820152019360481c1615158352613601565b51925116026001600160401b03811690810361298f5761289491613680565b62093a80810180911161298f57421061294a576128c481606461175f6128ce945160ff60065460401c16906134bb565b620f4240906134bb565b90516001600160a01b03165f908152600760205260409020600101805490916128f691613680565b9055805f52600860205261292460405f2060045f918281558260018201558260028201558260038201550155565b7f7eb62d726596228b1e7361e9eedaed2958f01c80461ad7331780d0cc3bd142b05f80a2005b60405162461bcd60e51b815260206004820152601c60248201527f4465616c206475726174696f6e206e6f742073756666696369656e74000000006044820152606490fd5b634e487b7160e01b5f52601160045260245ffd5b60405162461bcd60e51b815260206004820152602560248201527f4f6e6c792072656365697665722063616e20706572666f726d2074686973206160448201526431ba34b7b760d91b6064820152608490fd5b34610ef4576040366003190112610ef457612a0f61321f565b7f80033d6e657c31f4095a9ce4e6c784f2cc84865a9ffa4f429f9a16464d9782b660206001600160401b03602435931692835f5260088252612a59600260405f20015415156134e4565b835f526008825280600260405f20612a7e60018060a01b03825460401c163314613526565b612a9260ff600483015460401c1615613572565b612a9d8315156135b6565b0155604051908152a2005b34610ef4575f366003190112610ef4576020600554604051908152f35b34610ef4576060366003190112610ef457612ade6131f2565b612ae6613201565b90612aef613210565b335f908152600760205260409020546001600160a01b0316612de8578115928284612de1575b8015612dda575b612b259061346f565b602093600360405191612b388784613306565b5f83525f36813760405190612b4c826132cf565b338083525f8984018181526040808601838152606087018481529515608088019081528a151560a089019081528c151560c08a0190815260e08a019b8c5296865260078f5292909420965187546001600160a01b039091166001600160a01b0319909116178755915160018701559051600286018054955193519251945164ff000000009015158e1b1663ff00000095151560181b9590951662ff000093151560101b9390931660089490941b61ff001660ff90921664ffffffffff1990961695909517179190911717179055915180519691909201916001600160401b038711612dc657600160401b8711612dc65781908354888555808910612d7a575b5001915f52805f20958060021c915f5b838110612d36575060031982169091039081612cb7575b60408051881515815286151560208201528715159181019190915233907f0dfb77a1d959666c200e248287b029d1ec4bf434967e7ed82bc3865c47a4de3290606090a2005b92905f935f5b828110612cf757505050507f0dfb77a1d959666c200e248287b029d1ec4bf434967e7ed82bc3865c47a4de32949501558392858080612c72565b9091929482612d2b6001926001600160401b03895116908560031b6001600160401b03809160031b9316831b921b19161790565b960193929101612cbd565b5f5f5b60048110612d4e575089820155600101612c5b565b865190969160019185916001600160401b0360068b901b81811b199092169216901b1792019601612d39565b612da790855f52835f206003808c0160021c82019260188d831b1680612dad575b500160021c01906134ce565b88612c4b565b5f198501908154905f19908a03851b1c1690558d612d9b565b634e487b7160e01b5f52604160045260245ffd5b5081612b1c565b5080612b15565b60405162461bcd60e51b815260206004820152601760248201527f5573657220616c726561647920726567697374657265640000000000000000006044820152606490fd5b34610ef4575f366003190112610ef457335f526007602052612e5c3360018060a01b0360405f20541614613427565b612e64613823565b335f526007602052600160405f2001548015612fd357335f908152600760209081526040808320600101839055600480546002549251631a4ca37b60e21b81526001600160a01b03938416928101929092526024820186905230604483015290938492606492849291165af19081156122eb575f91612fa1575b50818103612f6757612ef290600554613462565b60055560025460405163a9059cbb60e01b602082015233602482015260448082018490528152612f35916001600160a01b0316612f30606483613306565b613885565b6040519081527f60940a45682dd211584724a922396732f11d82de250ddce40f7cdc3dc580586560203392a260015f55005b60405162461bcd60e51b81526020600482015260126024820152710aed2e8d0c8e4c2eedc40dad2e6dac2e8c6d60731b6044820152606490fd5b90506020813d602011612fcb575b81612fbc60209383613306565b81010312610ef4575182612ede565b3d9150612faf565b60405162461bcd60e51b8152602060048201526014602482015273496e73756666696369656e742062616c616e636560601b6044820152606490fd5b34610ef4576020366003190112610ef4576130286131dc565b61305c337f00000000000000000000000000000000000000000000000000000000000000006001600160a01b0316146133eb565b6001600160a01b031680156130a357600480546001600160a01b031916821790557fedb4b80920262eefb05e16f54e0b43ef9facdfd59ca7d55623a0705406d6cb005f80a2005b60405162461bcd60e51b815260206004820152600c60248201526b125b9d985b1a59081c1bdbdb60a21b6044820152606490fd5b34610ef4575f366003190112610ef4576020604051308152f35b34610ef4575f366003190112610ef4576002546040516001600160a01b039091168152602090f35b34610ef4575f366003190112610ef4576001546040516001600160a01b039091168152602090f35b34610ef4576020366003190112610ef457610100906004355f52600860205260ff60405f2080549060018060a01b0360018201541660028201549060046003840154930154936001600160401b038116875260018060a01b039060401c1660208701526040860152606085015260808401526001600160401b03811660a0840152818160401c16151560c084015260481c16151560e0820152f35b600435906001600160a01b0382168203610ef457565b600435908115158203610ef457565b602435908115158203610ef457565b604435908115158203610ef457565b600435906001600160401b0382168203610ef457565b6040600319820112610ef4576004356001600160401b0381168103610ef457916024356001600160401b038111610ef45782602382011215610ef4578060040135926001600160401b038411610ef45760248483010111610ef4576024019190565b90600182811c921680156132c5575b60208310146132b157565b634e487b7160e01b5f52602260045260245ffd5b91607f16916132a6565b61010081019081106001600160401b03821117612dc657604052565b60e081019081106001600160401b03821117612dc657604052565b90601f801991011681019081106001600160401b03821117612dc657604052565b9060405191825f82549261333a84613297565b80845293600181169081156133a55750600114613361575b5061335f92500383613306565b565b90505f9291925260205f20905f915b81831061338957505090602061335f928201015f613352565b6020919350806001915483858901015201910190918492613370565b90506020925061335f94915060ff191682840152151560051b8201015f613352565b805180835260209291819084018484015e5f828201840152601f01601f1916010190565b156133f257565b60405162461bcd60e51b815260206004820152600d60248201526c2737ba103a34329027bbb732b960991b6044820152606490fd5b1561342e57565b60405162461bcd60e51b815260206004820152600c60248201526b2737ba103a3432903ab9b2b960a11b6044820152606490fd5b9190820391821161298f57565b1561347657565b60405162461bcd60e51b815260206004820152601e60248201527f4174206c65617374206f6e6520726f6c65206d757374206265207472756500006044820152606490fd5b8181029291811591840414171561298f57565b8181106134d9575050565b5f81556001016134ce565b156134eb57565b60405162461bcd60e51b81526020600482015260136024820152721119585b08191bd95cc81b9bdd08195e1a5cdd606a1b6044820152606490fd5b1561352d57565b60405162461bcd60e51b815260206004820152601e60248201527f4f6e6c792070617965722063616e2075706461746520746865206465616c00006044820152606490fd5b1561357957565b60405162461bcd60e51b81526020600482015260156024820152741119585b08185b1c9958591e481858d8d95c1d1959605a1b6044820152606490fd5b156135bd57565b606460405162461bcd60e51b815260206004820152602060248201527f416d6f756e74206d7573742062652067726561746572207468616e207a65726f6044820152fd5b1561360857565b60405162461bcd60e51b81526020600482015260116024820152701119585b081b9bdd081858d8d95c1d1959607a1b6044820152606490fd5b1561364857565b60405162461bcd60e51b815260206004820152601060248201526f1119585b081a5cc8191a5cdc1d5d195960821b6044820152606490fd5b9190820180921161298f57565b1561369457565b60405162461bcd60e51b8152602060048201526016602482015275111a5cdc1d5d1948191bd95cc81b9bdd08195e1a5cdd60521b6044820152606490fd5b156136d957565b60405162461bcd60e51b815260206004820152601560248201527450726f6f662063616e6e6f7420626520656d70747960581b6044820152606490fd5b908060209392818452848401375f828201840152601f01601f1916010190565b61376394926001600160401b0360609316825260018060a01b031660208201528160408201520191613716565b90565b1561376d57565b60405162461bcd60e51b815260206004820152602260248201527f4f6e6c792070617965722063616e20706572666f726d2074686973206163746960448201526137b760f11b6064820152608490fd5b90816020910312610ef457518015158103610ef45790565b6137df8154613297565b90816137e9575050565b81601f5f93116001146137fa575055565b8183526020832061381691601f0160051c8101906001016134ce565b8082528160208120915555565b60025f54146138325760025f55565b633ee5aeb560e01b5f5260045ffd5b6040516323b872dd60e01b60208201526001600160a01b03928316602482015292909116604483015260648083019390935291815261335f91612f30608483613306565b905f602091828151910182855af1156122eb575f513d6138d457506001600160a01b0381163b155b6138b45750565b635274afe760e01b5f9081526001600160a01b0391909116600452602490fd5b600114156138ad56fea26469706673582212200fc22016149142eeb63021768f6df17576ac5bc83ac2a6578690ef5b61c742e864736f6c634300081e0033a2646970667358221220861d39622ca1e7f97d34c441a1be8c07a18506f3146283c9ecdd3d4544e20fa264736f6c634300081e0033","linkReferences":{}},"methodIdentifiers":{"createMarketplace(uint8,address)":"f578159c","isDeployedMarketplace(address)":"b6bb7f97","isMarketplace(address)":"417ed258","owner()":"8da5cb5b","protocol()":"8ce74426","setProtocolAddress(address)":"58e47004"},"id":0}