{"abi":[{"type":"function","name":"balances","inputs":[{"name":"","type":"address","internalType":"address"}],"outputs":[{"name":"","type":"uint256","internalType":"uint256"}],"stateMutability":"view"},{"type":"function","name":"supply","inputs":[{"name":"asset","type":"address","internalType":"address"},{"name":"amount","type":"uint256","internalType":"uint256"},{"name":"onBehalfOf","type":"address","internalType":"address"},{"name":"","type":"uint16","internalType":"uint16"}],"outputs":[],"stateMutability":"nonpayable"},{"type":"function","name":"withdraw","inputs":[{"name":"asset","type":"address","internalType":"address"},{"name":"amount","type":"uint256","internalType":"uint256"},{"name":"to","type":"address","internalType":"address"}],"outputs":[{"name":"","type":"uint256","internalType":"uint256"}],"stateMutability":"nonpayable"},{"type":"event","name":"Supplied","inputs":[{"name":"asset","type":"address","indexed":false,"internalType":"address"},{"name":"amount","type":"uint256","indexed":false,"internalType":"uint256"},{"name":"onBehalfOf","type":"address","indexed":false,"internalType":"address"}],"anonymous":false},{"type":"event","name":"Withdrawn","inputs":[{"name":"asset","type":"address","indexed":false,"internalType":"address"},{"name":"amount","type":"uint256","indexed":false,"internalType":"uint256"},{"name":"to","type":"address","indexed":false,"internalType":"address"}],"anonymous":false}],"bytecode":{"object":"0x60808060405234601557610365908161001a8239f35b5f80fdfe6080806040526004361015610012575f80fd5b5f3560e01c90816327e235e31461028257508063617ba03714610187576369328dec1461003d575f80fd5b34610183576060366003190112610183576100566102b5565b6024356100616102cb565b81335f525f60205260405f205480911161017b575b50335f525f60205260405f20805490838203918211610167575560405163a9059cbb60e01b81526001600160a01b03828116600483015260248201849052602090829060449082905f9089165af193841561015c576101267fcbcdbdf10631a43cc99c80acace8232649421c3f4f73919f16013d47c83a687a938593602097610131575b50604080516001600160a01b039485168152602081019590955292169183019190915281906060820190565b0390a1604051908152f35b61015090883d8a11610155575b61014881836102e1565b810190610317565b6100fa565b503d61013e565b6040513d5f823e3d90fd5b634e487b7160e01b5f52601160045260245ffd5b91505f610076565b5f80fd5b34610183576080366003190112610183576101a06102b5565b6024356101ab6102cb565b9160643561ffff811603610183576040516323b872dd60e01b8152336004820152306024820152604481018390526020816064815f6001600160a01b0387165af1801561015c57610265575b5060018060a01b0383165f525f60205260405f2080549383850180951161016757939055604080516001600160a01b03928316815260208101939093529216918101919091527f9e27d79e985b7c03ec157f2246fa910abb8b6fdeb57238b95536cbd626c074d690606090a1005b61027d9060203d6020116101555761014881836102e1565b6101f7565b34610183576020366003190112610183576020906001600160a01b036102a66102b5565b165f525f825260405f20548152f35b600435906001600160a01b038216820361018357565b604435906001600160a01b038216820361018357565b90601f8019910116810190811067ffffffffffffffff82111761030357604052565b634e487b7160e01b5f52604160045260245ffd5b9081602091031261018357518015158103610183579056fea264697066735822122096cfa1583b243183d4ef9f3a1c21aab0a3e5da00edd7cc2889567f7fdcd0fe4864736f6c634300081e0033","linkReferences":{}},"methodIdentifiers":{"balances(address)":"27e235e3","supply(address,uint256,address,uint16)":"617ba037","withdraw(address,uint256,address)":"69328dec"},"id":10}